:020000040800F2
:1000000000000220D91D000821170008231700084E
:10001000251700082717000829170008000000000E
:10002000000000000000000000000000215F000848
:100030002B17000800000000C15F000825600008C1
:10004000291E0008291E0008291E0008291E000874
:10005000291E0008291E0008291E0008291E000864
:10006000291E0008291E0008291E0008291E000854
:100070002D170008291E0008291E0008291E000847
:10008000291E0008291E0008291E0008291E000834
:100090003D170008291E0008291E0008291E000817
:1000A000291E00084D170008291E0008291E0008F7
:1000B0005D1700086D170008291E0008291E00089A
:1000C000291E0008291E0008291E0008291E0008F4
:1000D000291E0008291E0008291E00087D17000897
:1000E000291E0008291E0008291E0008291E0008D4
:1000F000291E0008291E0008291E0008291E0008C4
:10010000291E0008291E0008291E0008291E0008B3
:10011000291E0008291E0008291E0008291E0008A3
:100120005D180008291E0008291E00086D18000827
:10013000291E00087D180008291E0008291E000835
:10014000291E0008291E0008291E0008291E000873
:10015000291E0008291E0008291E0008291E000863
:10016000291E0008291E0008291E0008291E000853
:10017000291E0008291E0008291E00080000000092
:08018000291E0008291E0008D9
:1001C00010B5054C237833B9044B13B10448AFF391
:1001D00000800123237010BDD00B00200000000020
:1001E000FCD3010808B5034B1BB103490348AFF327
:1001F000008008BD00000000D40B0020FCD30108E3
:1002000081F0004102E000BF83F0004330B54FEAC7
:1002100041044FEA430594EA050F08BF90EA020F34
:100220001FBF54EA000C55EA020C7FEA645C7FEAC7
:10023000655C00F0E2804FEA5454D4EB5555B8BFEA
:100240006D420CDD2C4480EA020281EA030382EA5B
:10025000000083EA010180EA020281EA0303362DED
:1002600088BF30BD11F0004F4FEA01314FF4801CC0
:100270004CEA113102D0404261EB410113F0004FD2
:100280004FEA03334CEA133302D0524263EB430389
:1002900094EA050F00F0A780A4F10104D5F1200E27
:1002A0000DDB02FA0EFC22FA05F2801841F1000182
:1002B00003FA0EF2801843FA05F359410EE0A5F156
:1002C00020050EF1200E012A03FA0EFC28BF4CF087
:1002D000020C43FA05F3C01851EBE37101F000453D
:1002E00007D54FF0000EDCF1000C7EEB00006EEB4A
:1002F0000101B1F5801F1BD3B1F5001F0CD34908D4
:100300005FEA30004FEA3C0C04F101044FEA44522A
:1003100012F5800F80F09A80BCF1004F08BF5FEAB1
:10032000500C50F1000041EB045141EA050130BD91
:100330005FEA4C0C404141EB0101013C28BFB1F5A3
:10034000801FE9D291F0000F04BF01460020B1FAEE
:1003500081F308BF2033A3F10B03B3F120020CDAC1
:100360000C3208DD02F1140CC2F10C0201FA0CF09F
:1003700021FA02F10CE002F11402D8BFC2F1200C04
:1003800001FA02F120FA0CFCDCBF41EA0C019040BA
:10039000E41AA2BF01EB0451294330BD6FEA040403
:1003A0001F3C1CDA0C340EDC04F11404C4F12002EE
:1003B00020FA04F001FA02F340EA030021FA04F300
:1003C00045EA030130BDC4F10C04C4F1200220FA57
:1003D00002F001FA04F340EA0300294630BD21FA95
:1003E00004F0294630BD94F0000F83F4801306BF5B
:1003F00081F480110134013D4EE77FEA645C18BF4F
:100400007FEA655C29D094EA050F08BF90EA020FE5
:1004100005D054EA000C04BF1946104630BD91EADD
:10042000030F1EBF0021002030BD5FEA545C05D1E0
:100430004000494128BF41F0004130BD14F580041F
:100440003CBF01F5801130BD01F0004545F0FE4193
:1004500041F470014FF0000030BD7FEA645C1ABFC8
:10046000194610467FEA655C1CBF0B46024650EAFF
:10047000013406BF52EA033591EA030F41F400212B
:1004800030BD00BF90F0000F04BF0021704730B5B1
:100490004FF4806404F132044FF000054FF0000186
:1004A00050E700BF90F0000F04BF0021704730B547
:1004B0004FF4806404F1320410F0004548BF40421C
:1004C0004FF000013EE700BF42004FEAE2014FEA71
:1004D00031014FEA02701FBF12F07F4393F07F4F4C
:1004E00081F06051704732F07F4208BF704793F04F
:1004F0007F4F04BF41F40021704730B54FF4607462
:1005000001F0004521F000411CE700BF50EA010264
:1005100008BF704730B54FF000050AE050EA01020D
:1005200008BF704730B511F0004502D5404261EB7D
:1005300041014FF4806404F132045FEA915C3FF4BE
:10054000D8AE4FF003025FEADC0C18BF03325FEA5B
:10055000DC0C18BF033202EBDC02C2F1200300FA0C
:1005600003FC20FA02F001FA03FE40EA0E0021FA31
:1005700002F11444BDE600BF70B54FF0FF0C4CF41F
:10058000E06C1CEA11541DBF1CEA135594EA0C0FD1
:1005900095EA0C0F00F0DEF82C4481EA030621EA0C
:1005A0004C5123EA4C5350EA013518BF52EA033547
:1005B00041F4801143F4801338D0A0FB02CE4FF0F9
:1005C0000005E1FB02E506F00042E0FB03E54FF029
:1005D0000006E1FB03569CF0000F18BF4EF0010E21
:1005E000A4F1FF04B6F5007F64F5407404D25FEA1D
:1005F0004E0E6D4146EB060642EAC62141EA5551D0
:100600004FEAC52040EA5E504FEACE2EB4F1FD0C11
:1006100088BFBCF5E06F1ED8BEF1004F08BF5FEA8F
:10062000500E50F1000041EB045170BD06F0004641
:1006300046EA010140EA020081EA0301B4EB5C04EE
:10064000C2BFD4EB0C0541EA045170BD41F48011E6
:100650004FF0000E013C00F3AB8014F1360FDEBF0B
:10066000002001F0004170BDC4F10004203C35DAE7
:100670000C341BDC04F11404C4F1200500FA05F36A
:1006800020FA04F001FA05F240EA020001F000420B
:1006900021F0004110EBD37021FA04F642EB060181
:1006A0005EEA430E08BF20EAD37070BDC4F10C04AB
:1006B000C4F1200500FA04F320FA05F001FA04F26F
:1006C00040EA020001F0004110EBD37041F100015B
:1006D0005EEA430E08BF20EAD37070BDC4F1200566
:1006E00000FA05F24EEA020E20FA04F301FA05F2CE
:1006F00043EA020321FA04F001F0004121FA04F276
:1007000020EA020000EBD3705EEA430E08BF20EA45
:10071000D37070BD94F0000F0FD101F0004640007F
:1007200041EB010111F4801F08BF013CF7D041EA01
:10073000060195F0000F18BF704703F00046520005
:1007400043EB030313F4801F08BF013DF7D043EAD6
:100750000603704794EA0C0F0CEA135518BF95EA8C
:100760000C0F0CD050EA410618BF52EA4306D1D113
:1007700081EA030101F000414FF0000070BD50EA32
:10078000410606BF1046194652EA430619D094EABC
:100790000C0F02D150EA013613D195EA0C0F05D1A6
:1007A00052EA03361CBF104619460AD181EA0301FA
:1007B00001F0004141F0FE4141F470014FF00000B2
:1007C00070BD41F0FE4141F4780170BD70B54FF04D
:1007D000FF0C4CF4E06C1CEA11541DBF1CEA1355CD
:1007E00094EA0C0F95EA0C0F00F0A7F8A4EB0504AF
:1007F00081EA030E52EA03354FEA013100F08880A6
:100800004FEA03334FF0805545EA131343EA12636E
:100810004FEA022245EA111545EA10654FEA002623
:100820000EF000419D4208BF964244F1FD0404F5DC
:10083000407402D25B084FEA3202B61A65EB030538
:100840005B084FEA32024FF480104FF4002CB6EBF5
:10085000020E75EB030E22BFB61A754640EA0C0075
:100860005B084FEA3202B6EB020E75EB030E22BFB5
:10087000B61A754640EA5C005B084FEA3202B6EBF6
:10088000020E75EB030E22BFB61A754640EA9C00B5
:100890005B084FEA3202B6EB020E75EB030E22BF85
:1008A000B61A754640EADC0055EA060E18D04FEA43
:1008B000051545EA16754FEA06164FEAC30343EAE3
:1008C00052734FEAC2025FEA1C1CC0D111F4801FB0
:1008D0000BD141EA00014FF000004FF0004CB6E7A9
:1008E00011F4801F04BF01430020B4F1FD0C88BF48
:1008F000BCF5E06F3FF6AFAEB5EB030C04BFB6EB53
:10090000020C5FEA500C50F1000041EB045170BD45
:100910000EF0004E4EEA113114EB5C04C2BFD4EB72
:100920000C0541EA045170BD41F480114FF0000EF6
:10093000013C90E645EA060E8DE60CEA135594EA72
:100940000C0F08BF95EA0C0F3FF43BAF94EA0C0F75
:100950000AD150EA01347FF434AF95EA0C0F7FF4EA
:1009600025AF104619462CE795EA0C0F06D152EA3E
:1009700003353FF4FDAE1046194622E750EA410622
:1009800018BF52EA43067FF4C5AE50EA41047FF433
:100990000DAF52EA43057FF4EBAE12E753B94AB903
:1009A000002908BF00281CBF4FF0FF314FF0FF3077
:1009B00000F074B9ADF1080C6DE904CE00F006F852
:1009C000DDF804E0DDE9022304B070472DE9F047CB
:1009D000089D04468E46002B4DD18A42944669D923
:1009E000B2FA82F252B101FA02F3C2F1200120FA06
:1009F00001F10CFA02FC41EA030E94404FEA1C4854
:100A0000210CBEFBF8F61FFA8CF708FB16E341EA4F
:100A1000034306FB07F199420AD91CEB030306F1D5
:100A2000FF3080F01F81994240F21C81023E6344F6
:100A30005B1AA4B2B3FBF8F008FB103344EA03449A
:100A400000FB07F7A7420AD91CEB040400F1FF33AF
:100A500080F00A81A74240F207816444023840EAEC
:100A60000640E41B00261DB1D4400023C5E9004325
:100A70003146BDE8F0878B4209D9002D00F0EF80A8
:100A80000026C5E9000130463146BDE8F087B3FADB
:100A900083F6002E4AD18B4202D3824200F2F980C3
:100AA000841A61EB030301209E46002DE0D0C5E9C6
:100AB000004EDDE702B9FFDEB2FA82F2002A40F012
:100AC0009280A1EB0C014FEA1C471FFA8CFE012615
:100AD000200CB1FBF7F307FB131140EA01410EFBB9
:100AE00003F0884208D91CEB010103F1FF3802D260
:100AF000884200F2CB804346091AA4B2B1FBF7F05A
:100B000007FB101144EA01440EFB00FEA64508D97C
:100B10001CEB040400F1FF3102D2A64500F2BB80B9
:100B20000846A4EB0E0440EA03409CE7C6F1200708
:100B3000B34022FA07FC4CEA030C20FA07F401FA4E
:100B400006F31C43F9404FEA1C4900FA06F3B1FBD7
:100B5000F9F8200C1FFA8CFE09FB181140EA01413C
:100B600008FB0EF0884202FA06F20BD91CEB0101D9
:100B700008F1FF3A80F08880884240F28580A8F131
:100B800002086144091AA4B2B1FBF9F009FB101183
:100B900044EA014100FB0EFE8E4508D91CEB010121
:100BA00000F1FF346CD28E456AD90238614440EAC4
:100BB0000840A0FB0294A1EB0E01A142C846A64644
:100BC00056D353D05DB1B3EB080261EB0E0101FACD
:100BD00007F722FA06F3F1401F43C5E9007100262A
:100BE0003146BDE8F087C2F12003D8400CFA02FC80
:100BF00021FA03F3914001434FEA1C471FFA8CFE90
:100C0000B3FBF7F007FB10360B0C43EA064300FB7F
:100C10000EF69E4204FA02F408D91CEB030300F11D
:100C2000FF382FD29E422DD9023863449B1B89B2D4
:100C3000B3FBF7F607FB163341EA034106FB0EF35D
:100C40008B4208D91CEB010106F1FF3816D28B420A
:100C500014D9023E6144C91A46EA004638E72E46D6
:100C6000284605E70646E3E61846F8E64B45A9D2CE
:100C7000B9EB020864EB0C0E0138A3E74646EAE73D
:100C8000204694E74046D1E7D0467BE7023B6144EB
:100C900032E7304609E76444023842E7704700BF54
:100CA000844641EA000313F003036DD1403A41D377
:100CB00051F8043B40F8043B51F8043B40F8043B36
:100CC00051F8043B40F8043B51F8043B40F8043B26
:100CD00051F8043B40F8043B51F8043B40F8043B16
:100CE00051F8043B40F8043B51F8043B40F8043B06
:100CF00051F8043B40F8043B51F8043B40F8043BF6
:100D000051F8043B40F8043B51F8043B40F8043BE5
:100D100051F8043B40F8043B51F8043B40F8043BD5
:100D200051F8043B40F8043B51F8043B40F8043BC5
:100D3000403ABDD2303211D351F8043B40F8043B65
:100D400051F8043B40F8043B51F8043B40F8043BA5
:100D500051F8043B40F8043B103AEDD20C3205D375
:100D600051F8043B40F8043B043AF9D2043208D06D
:100D7000D2071CBF11F8013B00F8013B01D30B88DF
:100D800003806046704700BF082A13D38B078DD0BD
:100D900010F003038AD0C3F10403D21ADB071CBF8F
:100DA00011F8013B00F8013B80D331F8023B20F8F9
:100DB000023B7BE7043AD9D3013A11F8013B00F832
:100DC000013BF9D20B7803704B7843708B788370BA
:100DD00060467047000000000000000000000000B6
:100DE0000000000000000000000000000000000003
:100DF00000000000000000000000000000000000F3
:100E000090F800F06DE9024520F007016FF0000C4A
:100E100010F0070491F820F040F049804FF00004F2
:100E20006FF00700D1E9002391F840F000F10800CD
:100E300082FA4CF2A4FA8CF283FA4CF3A2FA8CF305
:100E40004BBBD1E9022382FA4CF200F10800A4FA6C
:100E50008CF283FA4CF3A2FA8CF3E3B9D1E90423C0
:100E600082FA4CF200F10800A4FA8CF283FA4CF3F7
:100E7000A2FA8CF37BB9D1E9062301F1200182FAB1
:100E80004CF200F10800A4FA8CF283FA4CF3A2FAB7
:100E90008CF3002BC6D0002A04BF04301A4612BAC5
:100EA000B2FA82F2FDE8024500EBD2007047D1E9C8
:100EB000002304F00305C4F100004FEAC50514F057
:100EC000040F91F840F00CFA05F562EA05021CBF28
:100ED00063EA050362464FF00004A9E70000000042
:100EE00001F0FF01102A2BDB10F0070F08D010F8DB
:100EF000013B013A8B422DD010F0070F42B3F6D1DF
:100F0000F0B441EA012141EA014122F007047FF0F7
:100F100000070023F0E80256083C85EA010586EA4E
:100F2000010685FA47F5A3FA87F586FA47F6A5FA8A
:100F300087F68EB9EED1F0BC01F0FF0102F0070296
:100F400032B110F8013B013A83EA010313B1F8D141
:100F50000020704701387047002D06BF3546033822
:100F6000073815F0010F07D1013015F4807F02BF5B
:100F7000013015F4C03F0130F0BC0138704700BFAC
:100F80004FF0FF3C06E000BF4FF0010C02E000BF55
:100F90004FF0010C4DF804CD4FEA410C7FEA6C5C38
:100FA0004FEA430C18BF7FEA6C5C1BD001B050EADB
:100FB000410C0CBF52EA430C91EA030F02BF90EAC6
:100FC000020F0020704710F1000F91EA030F58BF85
:100FD000994208BF90422CBFD8176FEAE37040F0E7
:100FE000010070474FEA410C7FEA6C5C02D150EA85
:100FF000013C07D14FEA430C7FEA6C5CD6D152EA40
:10100000033CD3D05DF8040B704700BF8446104604
:1010100062468C461946634600E000BF01B5FFF703
:10102000B7FF002848BF10F1000F01BD4DF808EDD3
:10103000FFF7F4FF0CBF012000205DF808FB00BFA4
:101040004DF808EDFFF7EAFF34BF012000205DF8FE
:1010500008FB00BF4DF808EDFFF7E0FF94BF01204B
:1010600000205DF808FB00BF4DF808EDFFF7CEFF4C
:1010700094BF012000205DF808FB00BF4DF808ED8B
:10108000FFF7C4FF34BF012000205DF808FB00BF5C
:101090004FEA410C7FEA6C5C02D150EA013C0AD174
:1010A0004FEA430C7FEA6C5C02D152EA033C02D166
:1010B0004FF0000070474FF0010070474FEA4102C7
:1010C00012F5001215D211D56FF47873B3EB62529A
:1010D00012D94FEAC12343F0004343EA505311F0C1
:1010E000004F23FA02F018BF404270474FF0000053
:1010F000704750EA013005D111F0004008BF6FF091
:10110000004070474FF00000704700BF08B50D4821
:101110000D4B03600323436000238360C3604FF4DF
:10112000102202614FF40012426103764376837607
:10113000C3760377437700F0B9FE00B908BD00F02D
:1011400049F9FBE7EC0B00200064004010B588B0C3
:101150000023039304930593069307930268194BA6
:101160009A4201D008B010BD0024019403F5EA337F
:101170001A6C42F000721A641A6C02F0007201924A
:10118000019A02941A6B42F001021A631B6B03F07E
:1011900001030293029B4FF4C05303930223049371
:1011A000032306930923079303A9074802F0A8FA2B
:1011B00022460521142001F08DFA142001F0C2FA14
:1011C000D0E700BF006400400000024010B582B0CC
:1011D00000240094164B1A6B42F480021A631A6BB7
:1011E00002F480020092009A01941A6B42F40012F9
:1011F0001A631B6B03F400130193019B2246052124
:101200000C2001F067FA0C2001F09CFA224605211F
:10121000382001F05FFA382001F094FA22460521C7
:101220003B2001F057FA3B2001F08CFA02B010BDD0
:101230000038024008B504F05DF80221034802F0CE
:1012400057FB4FF47A7004F02FFCF6E700100240D1
:10125000034B0360034B0B6080231360704700BF98
:10126000180E0020180C002010B588B00DF1040CE9
:10127000074C0FCCACE80F0094E807008CE807009F
:10128000002101A804F0DBFB024B186008B010BD80
:1012900018D40108140C00202DE9F0418CB0002472
:1012A0000794089409940A940B9401943F4B1A6B89
:1012B00042F004021A631A6B02F004020192019ACE
:1012C00002941A6B42F080021A631A6B02F08002D9
:1012D0000292029A03941A6B42F001021A631A6B8B
:1012E00002F001020392039A04941A6B42F0100276
:1012F0001A631A6B02F010020492049A05941A6B96
:1013000042F002021A631A6B02F002020592059A79
:1013100006941A6B42F008021A631B6B03F0080371
:101320000693069B224E224641F20201304602F00D
:10133000D9FA204F01224FF48061384602F0D2FAE8
:1013400022464FF40061384602F0CCFA4FF4805345
:10135000079301250895099403230A9307A93046AA
:1013600002F0CEF94FF440630793089509954FF0CA
:101370000208CDF8288007A9384602F0C1F90623F3
:1013800007934FF488130893099507A90A4802F0B8
:10139000B7F9CDF81C80089509940A9407A930463E
:1013A00002F0AEF90CB0BDE8F08100BF0038024099
:1013B0000010024000080240000C024008B502681C
:1013C000034B9A4200D008BD00F04AFDFBE700BF86
:1013D0000000014072B6FEE700B595B03022002152
:1013E00008A814F0DDFF00230393049305930693EC
:1013F00007930193204A116C41F080511164126CE3
:1014000002F080520192019A02931C4B1A6842F436
:1014100080421A601B6803F480430293029B0123FD
:1014200008934FF48033099302230E934FF4800204
:101430000F920C221092A82211921293042313935C
:1014400008A802F05FFA98B90F23039302230493CC
:10145000002305934FF4A05306934FF48053079352
:10146000052103A802F09CFC20B915B05DF804FB2F
:10147000FFF7B0FFFFF7AEFF0038024000700040FA
:1014800008B500F0D3FCFFF7A7FFFFF705FFFFF754
:101490009DFEFFF73BFE00F02DF800F037FB00F05B
:1014A0006BFA00F08BFB00F0FDFBA82011F05AFE58
:1014B00011F0F4FD12F05CFB0B4811F0BBFC04E0F2
:1014C00000F018F8084811F0B5FCFF28F8D00748DC
:1014D00003F038F812F072FC054803F033F8FFF718
:1014E000C3FE04F09DFAFEE758130020001400200C
:1014F0004814002008B50F480F4B03604FF4827367
:10150000436000238360C3600222026101224261C2
:101510004FF4007282613822C261036243628362C7
:101520000A23C36202F0CEFD00B908BDFFF752FFE7
:10153000FBE700BF58130020003001402DE9F041C7
:1015400088B00023039304930593069307930268DE
:101550003C4B9A4202D008B0BDE8F0810446002519
:10156000009503F584335A6C42F480525A645A6CE5
:1015700002F480520092009A01951A6B42F0010227
:101580001A631A6B02F001020192019A02951A6B1A
:1015900042F002021A631B6B03F002030293029BE8
:1015A000202303934FF00208CDF8108003270697FD
:1015B0000526079603A9244802F0A2F830230393D6
:1015C000CDF8108005950697079603A91F4802F0ED
:1015D00097F81F481F4B03604FF0C063436085605E
:1015E000C5604FF48063036145618561C5614FF457
:1015F00040330362456201F01DF9E8B9144BE3641E
:101600009C631548154B03604FF0C0634360402353
:1016100083600023C3604FF4806202614361836191
:10162000C3614FF400320262436201F003F930B942
:10163000094BA3649C638EE7FFF7CCFEDEE7FFF760
:10164000C9FEF5E7003001400000024000040240FE
:101650009812002010640240F812002058640240E2
:1016600000B583B0002200920D4B596C41F48041CB
:101670005964596C01F48041009100990192196CF0
:1016800041F0805119641B6C03F080530193019B5E
:101690000F216FF0010001F01DF803B05DF804FBAD
:1016A0000038024010B588B001460022192001F030
:1016B00011F8192001F046F800240194144B5A6CDB
:1016C00042F001025A645B6C03F001030193019B39
:1016D00002A903A802F03AFC02F028FC43000D48DE
:1016E000A0FB03239B0C013B0B480C4A026040F219
:1016F000E732C26043600461846003F08DF810B18A
:10170000012008B010BD044802F01CFFF9E700BF3B
:101710000038024083DE1B43B0130020000001406C
:10172000FEE7FEE7FEE7FEE7FEE7704708B5024882
:1017300001F044F908BD00BFD814002008B50248E4
:1017400000F091FE08BD00BFEC0B002008B5024878
:1017500002F041FF08BD00BFB013002008B50248E9
:1017600002F039FF08BD00BF0014002008B5024890
:1017700002F031FF08BD00BF4814002000B583B05F
:101780002F4B1B681A6812F0200F0CD00022009219
:101790001A6800925B680093009B294803F06AFC7A
:1017A00003B05DF804FB274A126812F0100FF4D062
:1017B000002201921A6801925B680193019B224BFF
:1017C0001B681A6812F4002F1CD11A6822F001025B
:1017D0001A601D4802685368C3F124039BB21B4979
:1017E0000B8024215160116841F4002111600168CF
:1017F0000A6842F001020A60192BCED1144812F097
:1018000097F8CAE71A6822F001021A600E490868C0
:101810004368C3F124030D4A1380242343600D4819
:10182000836A23F40023836209680B6843F0010391
:101830000B601388192BB0D1074812F079F8ACE788
:101840003815002000480040D8140020F81300206C
:10185000F8020120006002401C03012008B5024884
:1018600001F0ACF808BD00BF9812002008B502488E
:1018700001F0A4F808BD00BFF812002010B5084C14
:10188000204601F077FC236803F58052526912F07C
:10189000400F03D003F5805340225A6110BD00BFB2
:1018A0007846002001207047024B16221A604FF044
:1018B000FF3070478C0C012008B54FF0FF31FFF767
:1018C000F3FFFEE770B50C461646002506E0AFF3C1
:1018D0000080214601F8010B01350C46B542F6DBCC
:1018E000304670BD70B50C461646002504E014F86D
:1018F000010BAFF300800135B542F8DB304670BD17
:101900004FF0FF3070474FF400534B60002070479A
:10191000012070470020704710B403460C4A0D495F
:101920000D48006850B10C4800680344521A9342B5
:1019300008D8094A13605DF8044B70470648074C05
:101940000460F0E7064B0C221A604FF0FF30F2E71C
:101950000000022000800000FC130020A00C0120E9
:101960008C0C0120034AD2F8883043F47003C2F88B
:101970008830704700ED00E000B587B00023029387
:10198000039304930593009301931448144A02604F
:101990004360836044F29F12C2600361836102F07E
:1019A0003BFF90B94FF48053029302A90B4803F018
:1019B0003EF868B90023009301936946074803F095
:1019C00047F940B907B05DF804FBFFF703FDE9E70D
:1019D000FFF700FDEEE7FFF7FDFCF3E748140020FA
:1019E0000004004000B585B00368B3F1804F08D013
:1019F0001F4A93421AD01F4A93422BD005B05DF87C
:101A000004FB0022019203F50E33196C41F0010131
:101A100019641B6C03F001030193019B05211C2039
:101A200000F058FE1C2000F08DFEE7E70022029235
:101A3000114B196C41F0020119641B6C03F0020395
:101A40000293029B05211D2000F044FE1D2000F0A2
:101A500079FED3E700230393074B5A6C42F002024E
:101A60005A645B6C03F002030393039BC6E700BF59
:101A700000040040000401400038024000B589B075
:101A80000023039304930593069307930368B3F12C
:101A9000804F05D0194A934219D009B05DF804FB74
:101AA00000230193164B1A6B42F002021A631B6B60
:101AB00003F002030193019B082303930223049381
:101AC0000123079303A90F4801F01AFEE5E700235D
:101AD00002930B4B1A6B42F004021A631B6B03F068
:101AE00004030293029B40230393022304930323E2
:101AF000079303A9044801F003FECEE70004014068
:101B000000380240000402400008024000B58FB0D7
:101B100000230A930B930C930D930893099301935D
:101B200002930393049305930693079322484FF07F
:101B30008042026053224260836040F2CF72C260F2
:101B40000361836102F068FE30BB4FF480530A9357
:101B50000AA9194802F06BFF08BB174802F088FE7B
:101B600000BB00230893099308A9134803F070F8F9
:101B7000D8B96023019300230293039305930422B1
:101B80000DEB02010C4802F0D7FE88B90A48FFF7B6
:101B900075FF0FB05DF804FBFFF71CFCD5E7FFF7FE
:101BA00019FCDAE7FFF716FCDBE7FFF713FCE0E7C9
:101BB000FFF710FCEAE700BF0014002010B596B054
:101BC000002412941394149415941094119409946D
:101BD0000A940B940C940D940E940F942022214699
:101BE00001A814F0DDFB2D482D4B03605323436007
:101BF000846040F2CF73C36004614461846102F089
:101C00000BFE002837D14FF48053129312A92348BA
:101C100002F00DFF002831D1204802F029FE0028F3
:101C20002FD100231093119310A91C4803F010F832
:101C300050BB6023099300220A920B920C920D92E2
:101C40000E920F9209A9154802F076FEF8B900230A
:101C5000019302930393049305934FF40052069269
:101C6000089301A90D4803F039F898B90B48FFF71C
:101C700005FF16B010BDFFF7ADFBC4E7FFF7AAFBE9
:101C8000CAE7FFF7A7FBCCE7FFF7A4FBD1E7FFF715
:101C9000A1FBDCE7FFF79EFBE8E700BF9014002004
:101CA0000004014008B50B480B4B03600B4B43602D
:101CB00000238360C3604FF4806202610C224261A2
:101CC0008361C36103F01CF900B908BDFFF782FB13
:101CD000FBE700BF3815002000480040A086010047
:101CE0002DE9F04389B000230393049305930693F1
:101CF00007930268334B9A4202D009B0BDE8F083E3
:101D000004460025009503F5F8331A6C42F480224E
:101D10001A641A6C02F480220092009A01951A6BE0
:101D200042F002021A631A6B02F002020192019A57
:101D300002951A6B42F008021A631B6B03F008034A
:101D40000293029B4FF4806603964FF00209CDF890
:101D500010904FF00308CDF818800727079703A9C4
:101D6000194801F0CDFC4FF400730393CDF81090A7
:101D70000595CDF81880079703A9144801F0C0FC19
:101D80001348144B03604FF0006343608560C560E7
:101D9000066145618561C5614FF4003303624562A8
:101DA00000F048FD58B90A4BA3639C63002205214B
:101DB000272000F08FFC272000F0C4FC9DE7FFF7F0
:101DC00009FBF0E70048004000040240000C02401C
:101DD000D814002028600240DFF834D00D480E49A6
:101DE0000E4A002302E0D458C4500433C4188C4275
:101DF000F9D30B4A0B4C002301E013600432A242DA
:101E0000FBD3FFF7AFFD13F049FFFFF739FB704736
:101E10000000022000000020D00B00204015020826
:101E2000D00B0020A00C0120FEE7000008B50B4BF2
:101E30001A6842F400721A601A6842F480621A60EA
:101E40001A6842F480721A60032000F031FC00200E
:101E5000FFF728FCFFF704FC002008BD003C02400F
:101E6000034A1168034B1B780B441360704700BF93
:101E70007C15002004000020014B1868704700BF4B
:101E80007C15002038B50446FFF7F6FF0546B4F18F
:101E9000FF3F02D0044B1B781C44FFF7EDFF401BB3
:101EA000A042FAD338BD00BF04000020002800F093
:101EB000A18038B5044690F82030D3B12268136869
:101EC00043F001031360FFF7D7FF054623685A6804
:101ED00012F0010F10D1FFF7CFFF401B0A28F5D9F0
:101EE000636A43F400336362052384F820300120E1
:101EF00038BDFFF72BF9E1E71A6822F002021A60F9
:101F0000FFF7BAFF054623685A6812F0020F0DD09A
:101F1000FFF7B2FF401B0A28F5D9636A43F4003388
:101F20006362052384F820300120E1E7227E012A44
:101F30003DD01A6822F080021A60637E012B3BD0EC
:101F40002268136823F040031360A37E012B39D06D
:101F50002268136823F020031360E37E012B37D03F
:101F60002268136843F010031360237F012B35D0E0
:101F70002268136823F008031360637F012B33D0BA
:101F80002268136823F004031360A368E268134314
:101F900022691343626913436268013A216813435B
:101FA000CB6100206062012384F82030A0E71A682A
:101FB00042F080021A60C0E72268136843F04003D1
:101FC0001360C2E72268136843F020031360C4E77C
:101FD0002268136823F010031360C6E722681368B1
:101FE00043F008031360C8E72268136843F0040352
:101FF0001360CAE70120704790F82030013BDBB244
:10200000012B05D9436A43F48023436201207047C2
:1020100030B5464BD3F8002242F00102C3F800224B
:10202000D3F8002222F47C52C3F80022D3F8002215
:10203000486A42EA0022C3F800224A6902F01F02FD
:10204000012000FA02F2D3F81C026FEA020C20EA27
:102050000200C3F81C02CB69C3B9344BD3F80C029D
:102060000CEA0000C3F80C028C884869CD6844EA89
:102070000544483043F830408C68088840EA044002
:102080004C6904F1480E03EBCE035860CB69012B79
:102090001ED08B69002B33D12448D0F804320CEACF
:1020A0000303C0F804320B698BBB2048D0F814320C
:1020B0000CEA0303C0F814320B6A012B2ED01B4A22
:1020C000D2F8003223F00103C2F80032002030BD04
:1020D000164BD3F80C021043C3F80C028C884869E5
:1020E0000D6844EA0544483043F8304088894C691B
:1020F0008D6840EA0540483403EBC4035860C8E7E4
:102100000A48D0F804321343C0F80432CBE707483A
:10211000D0F814321343C0F81432CDE70349D1F894
:102120001C321A43C1F81C22C9E700BF00640040FA
:1021300070B5044690F82050EDB2012D06D0436AE8
:1021400043F4002343620125284670BD022380F832
:1021500020300268136823F001031360FFF78CFE40
:10216000064623685B6813F0010F0CD0FFF784FE6E
:10217000831B0A2BF5D9636A43F40033636205239A
:1021800084F82030E0E700256562DDE730B590F89F
:1021900020C00468A4680CF1FF3C5FFA8CFCBCF121
:1021A000010F6BD814F0E05F62D0C4F3016CBCF196
:1021B000020F05D9436A43F400034362012062E041
:1021C000012404FA0CF41C608B68002B3DD10D68CF
:1021D000CB68046843EA45550CF118031B01E55030
:1021E00003680C690CF1180E03EB0E135C600B7D99
:1021F000012B35D0D17993791B0443EA01635179DE
:1022000043EA012314790168234301EB0C11C1F85F
:102210008C31D17893781B0443EA0163517843EA07
:102220000123117802680B4302EB0C12C2F88831CB
:1022300002680CF1180C4FEA0C1C52F80C3043F0F9
:10224000010342F80C3000201DE04C6843EAC4034F
:10225000CC6823430CF11804240105682B51BFE717
:10226000036803EB0E13596841F480715960C1E7AC
:10227000436A43F400134362012004E0436A43F4D9
:1022800080234362012030BD90F82030013BDBB257
:10229000012B01D9002070470368986810F0806016
:1022A00000D001209A6812F0006F00D001309B68C6
:1022B00013F0805FEFD00130704790F820C00CF130
:1022C000FF3C5FFA8CFCBCF1010F00F2958030B44A
:1022D00051B90468E46814F0030F10D1436A43F461
:1022E00000134362012077E00468246914F0030FAF
:1022F00005D1436A43F40013436201206CE001F10D
:102300001B04240105682C5904F004049460002C7B
:1023100064D101F11B04240105682C59640D14607B
:10232000046801F11B0C4FEA0C1C54F80C4004F03B
:102330000204D46004686444646804F00F04146107
:10234000046864446468C4F30724946104686444C2
:102350006468240C5461026802EB0112D2F8B821BF
:102360001A70026802EB0112D2F8B821C2F30722F8
:102370005A70026802EB0112D2F8B821C2F3074288
:102380009A70026802EB0112D2F8B821120EDA70CC
:10239000026802EB0112D2F8BC211A71026802EB4A
:1023A0000112D2F8BC21C2F307225A71026802EB73
:1023B0000112D2F8BC21C2F307429A71026802EB03
:1023C0000112D2F8BC21120EDA7179B90268D36811
:1023D00043F02003D360002030BC704701F11B04A0
:1023E000240105682C59E408546099E702681369D0
:1023F00043F020031361EEE7436A43F48023436212
:102400000120704790F82030013BDBB2012B01D94D
:102410000020704721B90368D86800F003007047B6
:102420000368186900F00300704790F82030013B02
:10243000DBB2012B05D9436A43F4802343620120B8
:102440007047026853691943516100207047704713
:1024500070477047704770477047704770477047C4
:102460007047704770472DE9F84F054603685C696F
:10247000D3F804809F68D3F80CB0D3F810A0D3F839
:10248000189014F001063BD017F0010616D0012277
:102490009A6017F0020F08D117F0040F0CD117F053
:1024A000080606D04FF4805608E0FFF7D0FF00265C
:1024B00004E0FFF7CFFF01E04FF4006617F4807FE0
:1024C0000DD02B684FF480729A6017F4007F40F0B3
:1024D000868017F4806F00F0868046F4005617F46B
:1024E000803F0DD02B684FF480329A6017F4003F84
:1024F00040F0838017F4802F00F0838046F400467C
:1025000014F0080F07D01BF0100F04D046F400762B
:102510002B681022DA6014F0040F02D01BF0080FB1
:1025200079D114F0020F04D02B68DB6813F0030F8D
:1025300078D114F0400F07D01AF0100F04D046F4F1
:1025400080662B6810221A6114F0200F02D01AF056
:10255000080F6BD114F0100F04D02B681B6913F017
:10256000030F6AD114F4003F02D018F0100F68D1A5
:1025700014F4803F02D018F0080F69D114F4004F12
:102580007AD018F0040F74D014F4807F04D019F0BE
:10259000010F01D046F0010614F4007F04D019F0B9
:1025A000020F01D046F0020614F4806F04D019F037
:1025B000040F01D046F0040614F4006F59D019F04E
:1025C000700956D0B9F1400F65D058D8B9F1200F35
:1025D0005ED0B9F1300F42D146F0200644E02846E3
:1025E000FFF736FF7BE717F4006F02D046F4804612
:1025F00075E72846FFF72FFF71E72846FFF729FF09
:102600007EE717F4002F02D046F4803678E728469C
:10261000FFF722FF74E72B680822DA602846FFF7ED
:102620001CFF7EE7284610F05BFD82E72B6808223E
:102630001A612846FFF713FF8CE72846FFF70EFFC5
:1026400090E72B6810225A602846FFF709FF8FE7B2
:102650002B6808225A602846FFF703FF8EE7B9F17E
:10266000100F01D146F008062A68936923F0700321
:1026700093612B6804225A609EB9BDE8F88FB9F1C6
:10268000500F0BD0B9F1600FEED146F48076EBE736
:1026900046F01006E8E746F04006E5E746F080061B
:1026A000E2E76B6A1E436E622846FFF7DBFEE4E753
:1026B000074AD36823F4E0631B041B0C000200F4F8
:1026C000E060034343F0BF6343F40033D3607047DB
:1026D00000ED00E000B5194BDB68C3F30223C3F142
:1026E000070CBCF1040F28BF4FF0040C03F1040EDB
:1026F000BEF1060F18D9033B4FF0FF3E0EFA0CFC5B
:1027000021EA0C0199400EFA03F322EA030319436C
:1027100000280BDB0901C9B200F1604000F56140FF
:1027200080F800135DF804FB0023E5E700F00F00DC
:102730000901C9B2024B1954F4E700BF00ED00E0F3
:1027400014ED00E0002807DB00F01F024009012320
:102750009340024A42F82030704700BF00E100E099
:1027600010B40368D9B210390C4AA2FB0142120915
:102770000B4CA25CC2655F2909D923F47F7323F057
:10278000030304338365806D5DF8044B704723F4C5
:102790007F7323F003038365F5E700BFABAAAAAA02
:1027A00024D50108836A826992B9012B0AD0022BD1
:1027B00002D00BB100207047C36A13F0807F28D18C
:1027C00000207047C36AB3F1C07F24D00020704757
:1027D000B2F5005F09D0022B25D9032B25D1C36A9E
:1027E00013F0807F23D100207047032B03D8DFE84C
:1027F00003F01404140A00207047C36A13F0807FAA
:102800000DD100207047C36AB3F1C07F09D000200A
:102810007047012070470120704701207047012058
:102820007047012070470120704700207047012049
:102830007047000070B50446FFF71EFB002C5BD00C
:102840000546022384F83530002384F834302268AA
:10285000136823F00103136023681A6812F0010F54
:102860000AD0FFF709FB431B052BF5D9202363652D
:10287000032084F8350070BD1A6820481040616854
:10288000A2680A43E1680A4321690A4361690A436D
:10289000A1690A43E1690A43216A0A430243616A62
:1028A00004291ED01A602668756925F00705636A39
:1028B0001D43042B07D1A36A1D43E36A1BB12046C5
:1028C000FFF770FF90B975612046FFF749FFE26D91
:1028D0003F239340836000206065012384F83530F6
:1028E000C9E7E16A206B01430A43DBE740236365E4
:1028F000012084F83500BEE70120BCE73F8010F0DE
:1029000070B50446866DFFF7B7FA94F83530DBB240
:10291000022B06D080236365002384F83430012025
:1029200070BD05462268136823F016031360226801
:10293000536923F080035361236CE3B12268136869
:1029400023F0080313602268136823F00103136067
:1029500023681B6813F0010F11D0FFF78DFA431B9A
:10296000052BF5D920236365032084F83500002367
:1029700084F83430D4E7A36C002BDFD1E3E7E26DB9
:102980003F239340B360012384F83530002084F85E
:102990003400C5E790F83530DBB2022B03D080233A
:1029A000436501207047052380F8353002681368BD
:1029B00023F001031360002070470000F0B583B0DE
:1029C000044600230193724B1D68724BA3FB05352F
:1029D000AD0A876D3E68C26D08239340334210D024
:1029E00003681A6812F0040F0BD01A6822F0040270
:1029F0001A60C26D08239340BB60436D43F001032E
:102A00004365E26D01239340334209D02268526945
:102A100012F0800F04D0BB60636D43F00203636566
:102A2000E26D04239340334209D02268126812F009
:102A3000020F04D0BB60636D43F004036365E26D75
:102A400010239340334224D02268126812F0080FFA
:102A50001FD0BB6023681A6812F4802F0DD01B684A
:102A600013F4002F04D1236C9BB12046984710E04B
:102A7000A36C73B1204698470BE01A6812F4807F6C
:102A800003D11A6822F008021A60236C0BB12046A9
:102A90009847E26D20239340334255D02268126854
:102AA00012F0100F50D0BB6094F83530DBB2052B1C
:102AB0000ED023681A6812F4802F33D01B6813F4E9
:102AC000002F2AD1636C002B3ED0204698473BE074
:102AD0002268136823F0160313602268536923F0F9
:102AE00080035361236CA3B12268136823F00803A9
:102AF0001360E26D3F239340BB60012384F83530BF
:102B0000002384F83430236D002B3FD020469847B3
:102B10003CE0A36C002BE7D1EBE7E36BA3B12046CD
:102B2000984711E01A6812F4807F09D11A6822F0E0
:102B300010021A60012384F83530002384F8343001
:102B4000E36B0BB120469847636DFBB1636D13F0E7
:102B5000010F17D0052384F835302268136823F05D
:102B600001031360019B01330193AB4204D8236836
:102B70001B6813F0010FF5D1012384F835300023D1
:102B800084F83430E36C0BB12046984703B0F0BDB5
:102B900000000020B5814E1B5079137943EA0023D1
:102BA00007480B50D07893781B0443EA00635078B1
:102BB00043EA002312781343024A8B50704700BF48
:102BC0004080024044800240036803F580539A69C4
:102BD00042F400529A617047036803F580539A6982
:102BE00022F400529A617047036803F580539A6992
:102BF00042F002029A617047036803F580539A69B4
:102C000022F002029A61704782B0084B1B68084AA2
:102C1000A2FB03235B0A00FB03F3019300BF019BAC
:102C20005A1E0192002BF9D102B07047000000201B
:102C3000D34D621010B582B00446002301930268A0
:102C4000136843F00803136003681B6801930120B5
:102C5000FFF7DAFF2368019A1A6002B010BD10B5C1
:102C600082B00446002301930268136843F0040312
:102C7000136003681B6801930120FFF7C5FF2368F9
:102C8000019A1A6002B010BD10B582B0044600234C
:102C90000193036803F580539A6942F480129A61A4
:102CA000036803F580539B6901930120FFF7ACFF94
:102CB0002368019A03F580539A6102B010BD10B5E4
:102CC00082B00446002301930268136823F00403D2
:102CD000136003681B6801930120FFF795FF2368C9
:102CE000019A1A6002B010BD10B582B004460023EC
:102CF00001930268136823F00803136003681B68DC
:102D000001930120FFF780FF2368019A1A6002B047
:102D100010BD00002DE9F041AEB0054629B14FF4D9
:102D20000063C3604FF480438360002311931293C8
:102D30001393149315931693EB69002B40F0A58021
:102D40004FF4806317934FF4007318930024199481
:102D50001A941B941C941D9440271E971F94209432
:102D600021942294239424942594269480262796B3
:102D7000289429942A942B942C942D9429680B68D8
:102D8000484A1A40AB68E86803431798034343F482
:102D9000007313430B602B68D3F800800120FFF70A
:102DA00071F82B68C3F800802B685F602B685F6840
:102DB0000120FFF767F82B685F602B689C602B6829
:102DC000DC602A68936923F0BE031B041B0C3343A9
:102DD00093612B689F690120FFF754F82B689F616E
:102DE0002B68DC612B68DF690120FFF74BF82B684B
:102DF000DF6101944FF00073029303944FF40012CB
:102E000004920594069407940894042209920A9364
:102E10004FF480330B934FF480030C934FF4005323
:102E20000D930E960F9410942A6802F580529169C2
:102E30001D4B0B4043F0087343F0040393612B6870
:102E400003F580539C690120FFF71CF82B6803F5FC
:102E500080539C612B6803F58053144A1A602B68D9
:102E600003F580531C680120FFF70CF82B6803F56D
:102E700080531C60AB69012B0AD06A690021284687
:102E8000FFF78AFE2EB0BDE8F081002317935AE7C2
:102E90002A6802F58052D36943F4803343F040033B
:102EA000D361EAE70F8120FF233FDEF88020C102D3
:102EB00030B590F84540012C38D0012480F84540C9
:102EC000022480F84440C1624FF0000C03E0CEF8C9
:102ED0000C100CF1010C9C451CD24FEA4C1501EB77
:102EE0004C1E4FF480144C5140F2F45404FB0C245B
:102EF000CEF80840C4691CB94C5944F440044C5104
:102F00005C1E6445E3D90CF1010401EB4414CEF8D6
:102F10000C40DEE7036803F580531961012380F854
:102F20004430002380F84530184630BD0220FCE7CD
:102F300030B590F84540012C36D0012480F845404A
:102F4000022480F8444081624FF0000C03E0CEF888
:102F50000C100CF1010C9C451AD24FEA4C1401EBF9
:102F60004C1E4FF000450D5144F2F454CEF804408D
:102F700040F2F45404FB0C24CEF808405C1E644577
:102F8000E5D90CF1010401EB4414CEF80C40E0E764
:102F9000036803F58053D960012380F8443000238F
:102FA00080F84530184630BD0220FCE790F84530E7
:102FB000012B00F08A80012380F84530022380F83D
:102FC0004430C9B1C36A1A68002A1DDB10B440F24C
:102FD000F452914220D93E4AA2FB012C4FEA9C2C8C
:102FE00040F2F45202FB1C120AB10CF1010CBCF1CC
:102FF000010F11D000234AE0012380F84430002261
:1030000080F8452018467047122380F8443000238A
:1030100080F84530012070471A6842F040521A602B
:10302000C36AC1F30C015960C26A136843F00043DC
:103030001360C36ADB68C362036803F58052526998
:1030400012F0040F08D003F5805304225A6103687C
:1030500003F5805300225A60012380F84430002396
:1030600080F8453018465DF8044B7047C26A40F25C
:10307000F45454600CF1FF329A4217D0C46A2268AB
:1030800042F000422260C26AD268C26201339C45AB
:10309000D2D9C46A226822F040522260002BE5D1C6
:1030A000C46A226842F080522260DFE7C46A226864
:1030B00042F000522260074A02FB0C1202F2F45264
:1030C000C46AC2F30C026260D8E70220704700BFF6
:1030D0000BB002AC0CFAFFFF90F84530012B45D045
:1030E000012380F84530022380F84430002104E0B9
:1030F000036301228263DB688362836A1A68002AA1
:103100002CDB03292AD801311A6802F44072B2F587
:10311000007FEDD01A6812F4407F05D1826B013236
:103120008263DB688362E8E74363826B0132826318
:10313000012A11D01A68C2F30D42043AC263026B2D
:1031400092680264DB688362012380F844300023C4
:1031500080F84530184670470363EBE7012380F899
:103160004430002280F845201846704702207047FE
:103170007047704710B50446036803F580525269E2
:1031800012F0400F13D103F580535B6913F0010F68
:103190001BD1236803F580534FF480325A612368B2
:1031A00003F580535B6913F4004F1BD110BD02F08F
:1031B0006FFB236803F5805340225A61012384F892
:1031C0004430002384F84530E3E7FFF7D1FF23685C
:1031D00003F5805301225A6184F84420002384F8C7
:1031E0004530D6E72046FFF7C4FF236803F5805338
:1031F0004FF400425A61012384F84430002384F8DC
:103200004530D3E7F8B590F84430DBB2822B33D0A9
:1032100005461646822380F844300068026902F0B1
:103220001C022B8ADB029BB213438C0104F4F8646A
:103230001C4344F001040461FEF71EFE074601E052
:103240002B681C6914F0010F0DD0FEF715FEC31B8F
:10325000B3F5803FF4D3012385F84430002385F88B
:103260004530032007E02B685B699BB23360012384
:1032700085F844300020F8BD0220FCE790F8443087
:10328000DBB2422B32D070B50546422380F8443081
:103290000668306900F01C002B8ADB029BB20343F6
:1032A0008C0104F4F8641C4344F0030492B272618C
:1032B0002B681C61FEF7E0FD064601E02B681C69E7
:1032C00014F0010F0DD0FEF7D7FD831BB3F5803F3F
:1032D000F4D3012385F84430002385F845300320DA
:1032E00003E0012385F84430002070BD02207047C0
:1032F00070B582B000230193002800F00E810446CF
:1033000090F84430002B34D000230093844B5A6C47
:1033100042F480425A645B6C03F480430093009B48
:10332000804B5A6822F400025A605A68216A0A43A4
:103330005A60236803F580531A6842F001021A604C
:10334000FEF79AFD0546236803F58052126812F0D5
:10335000010F13D0FEF790FD401BB0F5FA7FF2D9B4
:10336000032584F84450002384F84530284602B0F1
:1033700070BD80F8453002F0F7F9C5E71D6925F00A
:103380001C0500F0BDFD684B0344684A934255D2CA
:1033900045F0080523681D614FF4004200212046D6
:1033A000FFF76CFF0546002860D1FF20FEF76AFD9D
:1033B0006368002B00F09180FEF75EFD064601AACF
:1033C00001212046FFF71EFFFEF756FD801B41F24C
:1033D0008833984252D8019B13F0040FEFD04FF47A
:1033E000805200212046FFF749FF002852D1FEF706
:1033F00043FD064601AA01212046FFF703FFFEF721
:103400003BFD801B41F2883398424BD8019B13F05F
:10341000200FEFD001AA10212046FFF7F3FE00286D
:103420004CD1019B13F0040F50D04FF40062E260C6
:1034300013F0020F4DD00023A3605EE03C4B034429
:103440003C4A934202D845F00C05A3E73A4B0344AB
:103450003A4A93429ED33A4B03443A4A934202D8A3
:1034600045F0040596E745F0100593E70121204655
:10347000FFF750FC012584F8445077E701212046EE
:10348000FFF748FC012384F84430002384F84530DA
:1034900003256BE701212046FFF73CFC012584F85A
:1034A000445063E701212046FFF734FC012384F8F0
:1034B0004430002384F84530032557E70121204696
:1034C000FFF728FC012584F844504FE70022E26012
:1034D000AEE74FF48043A3600FE0E268C2F3CF028F
:1034E000A368C3F34F031A4300212046FFF7C6FE2B
:1034F00058B940F6FF70FEF7C5FC00212046FFF7E3
:1035000009FC012384F8443030E701212046FFF70D
:1035100001FC012584F8445028E7012526E700BF77
:10352000003802400038014000D3CEFEC0E1E40084
:1035300040F1E9FD3F787D0100796CFC005A6202A0
:10354000001F0AFA7FF0FA0238B590F84530012BD7
:103550001AD00446012580F84550022380F84430F3
:10356000FFF768FB2046FFF77AFB2046FFF78CFB4E
:103570002046FFF729FB2046FFF736FB84F844502E
:10358000002084F8450038BD0220FCE738B590F8EB
:103590004530012B1AD00446012580F845500223FE
:1035A00080F84430FFF718FB2046FFF725FB204644
:1035B000FFF785FB2046FFF767FB2046FFF794FBEC
:1035C00084F84450002084F8450038BD0220FCE710
:1035D00090F84530012B00F08E8070B505460C4602
:1035E000012380F84530022380F84430002971D04F
:1035F0000268136841491940236860680343A06862
:103600000343E0680343A8680343206903436069F8
:103610000343E8680343A0690343E0690343206A66
:103620000343606A0343A06A03430B4313602B68A0
:103630001E680120FEF726FC2B681E60E36A226BE1
:103640001343626B1343A26B1343E26B1343226C6D
:103650001343626C1343A16C2A680B4353602B68BD
:103660005E680120FEF70EFC2B685E602B68E26C42
:103670009A602B68226DDA6029688A6922F0BE029E
:103680001204120C606DA36D43EA0043E06D034326
:10369000206E0343606E0343A06E034313438B61AC
:1036A0002B689E690120FEF7EDFB2B689E61E36E9F
:1036B000216F2A680B43D3612B68DC690120FEF778
:1036C000E1FB2B68DC61012385F84430002085F89C
:1036D000450070BD01680A6822F490428368C068A2
:1036E000034313430B602B681C680120FEF7CAFBE1
:1036F0002B681C60E7E70220704700BF0F8120FFA6
:1037000000230F2B00F2E48070B582B060E0856882
:103710005E000324B44025EA0405CC68B4402C4381
:103720008460456825EA02054C68C4F300129A409B
:103730002A4342605AE0DC08083450F8246003F061
:10374000070295000F22AA4026EA020E0A69AA4043
:1037500042EA0E0240F824205CE0072200E000224A
:1037600002FA0EF22A4302345A4D45F824205A4AEE
:1037700014686FEA0C0224EA0C054E6816F4803FC8
:1037800001D04CEA0405544C2560646802EA040543
:103790004E6816F4003F01D04CEA04054E4C6560BB
:1037A000A46802EA04054E6816F4801F01D04CEAB2
:1037B0000405494CA560E46822404D6815F4001FDB
:1037C00001D04CEA0402444CE26001330F2B7DD857
:1037D00001229A400C6804EA020C32EA0404F4D193
:1037E0004C6804F00304013C012C90D94A6802F0B3
:1037F0000302032A09D0C4685D000322AA4024EA18
:1038000002048A68AA402243C2604A6802F00302A6
:10381000022A90D004684FEA430E032202FA0EF205
:1038200024EA02044A6802F0030202FA0EF222437A
:1038300002604A6812F4403FC7D000220192274A32
:10384000546C44F480445464526C02F480420192FB
:10385000019A9C08A51C1F4A52F8255003F0030248
:103860004FEA820E0F2202FA0EF225EA02051C4AE6
:1038700090423FF474AF02F5806290421AD002F594
:103880008062904218D002F58062904216D002F514
:103890008062904214D002F58062904212D002F50C
:1038A0008062904210D002F5806290423FF455AFA2
:1038B000082255E7012253E7022251E703224FE78E
:1038C00004224DE705224BE7062249E702B070BD0E
:1038D000704700BF00380140003C01400038024002
:1038E000000002400AB1816170470904816170479C
:1038F000436901EA030221EA030141EA02418161CD
:1039000070470000002800F0E08170B582B00446E6
:10391000036813F0010F3BD09F4B9B6803F00C032F
:10392000042B2CD09C4B9B6803F00C03082B21D05C
:103930006368B3F5803F4FD0B3F5A02F52D0964BBC
:103940001A6822F480321A601A6822F480221A60FF
:103950006368002B50D0FEF78FFA05468E4B1B682C
:1039600013F4003F14D1FEF787FA401B6428F5D901
:103970000320B1E1884B5B6813F4800FD8D0864BED
:103980001B6813F4003F03D06368002B00F09F8195
:10399000236813F0020F54D07F4B9B6813F00C0F79
:1039A0003ED07D4B9B6803F00C03082B33D0E368BB
:1039B000002B68D0794B01221A60FEF75DFA0546AC
:1039C000754B1B6813F0020F54D1FEF755FA401BDC
:1039D0000228F5D903207FE16F4A136843F480334E
:1039E0001360B5E76C4B1A6842F480221A601A68BB
:1039F00042F480321A60ABE7FEF73EFA0546664BAA
:103A00001B6813F4003FC3D0FEF736FA401B64284E
:103A1000F5D9032060E1604B5B6813F4800FC6D1D9
:103A20005D4B1B6813F0020F03D0E368012B40F0DD
:103A30005081594A136823F0F803216943EAC1030E
:103A40001360236813F0080F42D063696BB3534BC4
:103A50000122C3F8802EFEF70FFA05464E4B5B6F2E
:103A600013F0020F34D1FEF707FA401B0228F5D9F4
:103A7000032031E1484A136823F0F803216943EA3F
:103A8000C1031360DDE7454B00221A60FEF7F4F92D
:103A90000546414B1B6813F0020FD2D0FEF7ECF93C
:103AA000401B0228F5D9032016E13C4B0022C3F845
:103AB000802EFEF7E1F90546374B5B6F13F0020FDE
:103AC00006D0FEF7D9F9401B0228F5D9032003E1FF
:103AD000236813F0040F77D02F4B1B6C13F0805F1B
:103AE00033D1002301932C4B1A6C42F080521A649C
:103AF0001B6C03F080530193019B0125284B1B682D
:103B000013F4807F23D0A368012B34D0052B38D049
:103B1000214B1A6F22F001021A671A6F22F0040279
:103B20001A67A368002B3DD0FEF7A6F906461A4B8C
:103B30001B6F13F0020F46D1FEF79EF9801B41F276
:103B400088339842F3D90320C6E00025D6E7144A0B
:103B5000136843F480731360FEF78EF90646104B2A
:103B60001B6813F4807FCED1FEF786F9801B0228F4
:103B7000F5D90320B0E0084A136F43F0010313673F
:103B8000CFE7054B1A6F42F004021A671A6F42F032
:103B900001021A67C5E700BF003802400000474233
:103BA00000700040FEF768F90646524B1B6F13F099
:103BB000020F08D0FEF760F9801B41F2883398426B
:103BC000F3D9032088E0EDB9A369002B00F08380CE
:103BD000484A926802F00C02082A51D0022B17D0F2
:103BE000454B00221A66FEF747F90446414B1B6815
:103BF00013F0007F42D0FEF73FF9001B0228F5D9F1
:103C0000032069E03B4A136C23F080531364DBE725
:103C1000394B00221A66FEF72FF90546354B1B6813
:103C200013F0007F06D0FEF727F9401B0228F5D9D4
:103C3000032051E0E369226A1343626A43EA821374
:103C4000A26A5208013A43EA0243E26A43EA026383
:103C5000284A5360284B01221A66FEF70DF90446E4
:103C6000244B1B6813F0007F06D1FEF705F9001BFB
:103C70000228F5D903202FE000202DE000202BE0C2
:103C8000012B2BD01B4B5B6803F48001E26991424E
:103C900026D103F03F02216A8A4223D1616A47F6A6
:103CA000C0721A40B2EB811F1ED103F44031A26AE8
:103CB0005208013AB1EB024F18D103F07063E26A87
:103CC000B3EB026F14D1002006E001207047012001
:103CD00002E0012000E0002002B070BD0120FBE7FF
:103CE0000120F9E70120F7E70120F5E70120F3E7DC
:103CF0000120F1E7003802400000474208B5254B9B
:103D00009B6803F00C03042B3FD0082B3FD1214BC1
:103D10005A6802F03F025B6813F4800F12D01D4B0B
:103D20005968C1F388111C480023A1FB0001FCF76E
:103D300035FE184B5B68C3F3014301335B00B0FBF6
:103D4000F3F025E0134B5968C1F3881C4FEA4C117E
:103D5000B1EB0C006EEB0E0E4FEA8E1343EA90634C
:103D60008101091A63EB0E03DB0043EA5173C900BA
:103D700011EB0C0C43F10003990200234FEA8C2055
:103D800041EA9C51FCF70AFED3E7034800E00348F0
:103D900008BD00BF0038024000366E010024F40068
:103DA000002800F09B8070B50D4604464F4B1B6801
:103DB00003F007038B4208D2CBB24C4A137013684E
:103DC00003F007038B4240F08B80236813F0020F4F
:103DD00017D013F0040F04D0454A936843F4E0531E
:103DE0009360236813F0080F04D0414A936843F4AA
:103DF000604393603E4A936823F0F003A1680B434D
:103E00009360236813F0010F32D06368012B21D037
:103E10009A1E012A25D9364A126812F0020F61D083
:103E200033498A6822F0030213438B60FEF724F8BB
:103E300006462F4B9B6803F00C036268B3EB820FBE
:103E400016D0FEF719F8801B41F288339842F0D95A
:103E5000032042E0264A126812F4003FE0D101201C
:103E60003BE0234A126812F0007FD9D1012034E0F0
:103E70001E4B1B6803F00703AB4207D9EAB21B4B8A
:103E80001A701B6803F00703AB422DD1236813F0AF
:103E9000040F06D0164A936823F4E053E1680B43FD
:103EA0009360236813F0080F07D0114A936823F436
:103EB0006043216943EAC1039360FFF71FFF0C4B86
:103EC0009B68C3F303130B4AD35CD8400A4B1860BA
:103ED0000A4B1868FDF7E6FB002070BD0120704713
:103EE0000120FAE70120F8E70120F6E7003C024054
:103EF000003802400CD50108000000200800002016
:103F0000014B1868704700BF0000002008B5FFF79C
:103F1000F7FF044B9B68C3F38223034AD35CD8406A
:103F200008BD00BF003802401CD5010808B5FFF7E6
:103F3000E7FF044B9B68C3F34233034AD35CD8408A
:103F400008BD00BF003802401CD501080F230360E4
:103F50000B4B9A6802F0030242609A6802F0F0028A
:103F600082609A6802F4E052C2609B68DB0803F446
:103F7000E0530361034B1B6803F007030B607047BA
:103F800000380240003C02402DE9F04782B005466F
:103F9000884617461E46FDF76FFF0A9B1B1A03EB68
:103FA0000609FDF769FF82462B4B1B68C3F3CB3331
:103FB00009FB03F301932B689C6838EA04030CBFE8
:103FC0004FF0010C4FF0000CBC4540D0B6F1FF3F64
:103FD000F1D0FDF751FFA0EB0A0048450AD2B9F134
:103FE000000F07D0019A02B14A46019B013B0193A1
:103FF0009146E0E72A68536823F0E00353606B685A
:10400000B3F5827F0BD0AB6AB3F5005F14D0012308
:1040100085F85130002385F85030032018E0AB6854
:10402000B3F5004F02D0B3F5806FECD12A68136866
:1040300023F040031360E6E72A68136823F4005373
:1040400013602A68136843F400531360DFE700200D
:1040500002B0BDE8F08700BF0000002010B584B0BA
:104060000446164B1868164BA3FB0030400D4FF466
:104070007A7303FB00F003906368B3F5827F0BD083
:10408000039BBBB1039B013B039323689B6813F025
:10409000800FF5D100200EE000920B460022802117
:1040A0002046FFF771FF30B1636D43F02003636575
:1040B000032000E0002004B010BD00BF000000207D
:1040C000819F5E1600285AD010B50446436A33B962
:1040D0004368B3F5827F05D00023C36102E000236B
:1040E000036143610023A36294F85130002B40D058
:1040F000022384F851302268136823F040031360D0
:10410000636803F48273A26802F404421343E26812
:1041100002F400621343226902F00202134362694F
:1041200002F001021343A26902F400721343E26930
:1041300002F038021343226A02F080021343A26A9B
:1041400002F40052216813430B60638B03F00403F5
:10415000626A02F01002216813434B602268D3693F
:1041600023F40063D36100206065012384F851309B
:1041700010BD84F850302046FDF7E0F9B8E7012083
:1041800070472DE9F04383B01F460A9D90F85030E8
:10419000012B00F01081044688469146012380F8E7
:1041A0005030FDF769FE064694F85130DBB2626884
:1041B000012B0AD0B2F5827F40F0E380A268002A8A
:1041C00040F0E980042B40F0E880B8F1000F00F0E7
:1041D000E680B9F1000F00F0E480002F00F0E380EA
:1041E00094F85130DBB2042B02D0052384F851300F
:1041F00000236365C4F83890E787A787C4F8308048
:10420000E786A7862364636423681A6812F0400F68
:1042100003D11A6842F040021A60E368B3F5006FF8
:1042200011D063680BB1012F0BD1226B2368127878
:104230001A73236B01332363E38E9BB2013B9BB262
:10424000E38601276BE063680BB1012F0BD1226B72
:1042500023681288DA60236B02332363E38E9BB2F8
:10426000013B9BB2E38601271CE023689A6812F0A9
:10427000010F0ED0E28F92B25AB1DA68A36B1A80A6
:10428000A36B0233A363E38F9BB2013B9BB2E38733
:104290000127FDF7F1FD801BA84203D3B5F1FF3FD5
:1042A00040F08380E38E9BB21BB9E38F9BB2002B5F
:1042B00053D023689A6812F0020FD6D0E28E92B2E1
:1042C000002AD2D0002FD0D0226B1288DA60236B64
:1042D00002332363E38E9BB2013B9BB2E38600274C
:1042E000C3E723689A6812F0010F0ED0E28F92B2F2
:1042F0005AB1DA68A36B1A70A36B0133A363E38F1F
:104300009BB2013B9BB2E3870127FDF7B5FD831B01
:10431000AB4202D3B5F1FF3F49D1002D49D0E38E26
:104320009BB213B9E38F9BB2BBB123689A6812F0BA
:10433000020FD6D0E28E92B2002AD2D0002FD0D077
:10434000226B12781A73236B01332363E38E9BB2C3
:10435000013B9BB2E3860027C3E73246294620464D
:10436000FFF77CFE48B9A36863B901932368DA6854
:1043700001929B680193019B04E020236365012067
:1043800000E00220012384F85130002384F85030EB
:1043900003B0BDE8F0830220F4E70220F2E7012039
:1043A000F0E70120EEE70120ECE70320EAE7032035
:1043B000E8E70320E6E70220EAE7000030B4036AFA
:1043C00023F001030362036A4268846924F07304E2
:1043D0000D682C4323F0020C8B6843EA0C03104D4C
:1043E000A84203D005F58065A84205D123F0080353
:1043F000CD682B4323F00403094DA84203D005F5F3
:104400008065A84205D122F440724D692A438D6926
:104410002A43426084614A684263036230BC704749
:104420000000014030B4036A23F480730362036A1E
:104430004268C46924F0730C0C6844EA0C0523F448
:1044400000738C6843EA0423114CA04203D004F5A6
:104450008064A04206D123F40063CC6843EA0423BD
:1044600023F480630A4CA04203D004F58064A04288
:1044700007D122F440524C6942EA04128C6942EAA4
:1044800004124260C5614A68C263036230BC70476F
:104490000000014030B4036A23F480530362036ACE
:1044A0004468C26922F4E6420D6842EA052223F418
:1044B00000538D6843EA0533094DA84203D005F542
:1044C0008065A84204D124F480444D6944EA8514EF
:1044D0004460C2614A680264036230BC704700BF36
:1044E0000000014010B4036A046A24F0010404626D
:1044F000846924F0F00C4CEA021223F00A030B4307
:10450000826103625DF8044B704710B4046A24F0C2
:10451000100404628469036A24F4704C4CEA023289
:1045200023F0A00343EA0113826103625DF8044BA8
:104530007047836823F070030B4343F007038360E5
:104540007047000090F83D30DBB2012B37D10223D9
:1045500080F83D300268D36843F00103D3600368FC
:10456000194A934220D0B3F1804F1DD0A2F57C426E
:10457000934219D002F58062934215D002F5806211
:10458000934211D002F5784293420DD002F5705259
:10459000934209D0A2F59432934205D01A6842F0B2
:1045A00001021A60002070479A6802F00702062A8A
:1045B00007D01A6842F001021A60002070470120FB
:1045C00070470020704700BF0000014070477047EF
:1045D00070477047704710B5044603681A6912F0B7
:1045E000020F11D0DA6812F0020F0DD06FF0020244
:1045F0001A610123037703689B6913F0030F70D0DE
:10460000FFF7E6FF0023237723681A6912F0040FEF
:1046100012D0DA6812F0040F0ED06FF004021A61A3
:104620000223237723689B6913F4407F5FD02046E1
:10463000FFF7CEFF0023237723681A6912F0080FD3
:1046400012D0DA6812F0080F0ED06FF008021A616B
:10465000042323772368DB6913F0030F4ED0204631
:10466000FFF7B6FF0023237723681A6912F0100FB3
:1046700012D0DA6812F0100F0ED06FF010021A612B
:10468000082323772368DB6913F4407F3DD020465D
:10469000FFF79EFF0023237723681A6912F0010FAA
:1046A00003D0DA6812F0010F36D123681A6912F0CC
:1046B000800F03D0DA6812F0800F34D123681A69B2
:1046C00012F0400F03D0DA6812F0400F32D12368A5
:1046D0001A6912F0200F03D0DA6812F0200F30D1DF
:1046E00010BDFFF774FF2046FFF773FF8AE72046EF
:1046F000FFF76DFF2046FFF76CFF9BE72046FFF7B3
:1047000066FF2046FFF765FFACE72046FFF75FFF37
:104710002046FFF75EFFBDE76FF001021A612046F9
:10472000FCF74CFEC1E76FF080021A61204600F0F2
:10473000FFFAC3E76FF040021A612046FFF74AFF15
:10474000C5E76FF020021A61204600F0F0FAC7E7D3
:104750000368304A904212D0B0F1804F0FD0A2F5DA
:104760007C4290420BD002F58062904207D002F565
:104770008062904203D002F57842904203D123F048
:1047800070034A681343234A90422AD0B0F1804F05
:1047900027D0A2F57C42904223D002F5806290425D
:1047A0001FD002F5806290421BD002F57842904201
:1047B00017D002F57052904213D002F580629042F9
:1047C0000FD002F5806290420BD0A2F59832904251
:1047D00007D002F58062904203D002F580629042D9
:1047E00003D123F44073CA68134323F080034A695A
:1047F000134303608B68C3620B688362054B984266
:1048000003D003F58063984201D10B690363012350
:10481000436170470000014040B310B5044690F872
:104820003D30F3B1022384F83D30214651F8040BAA
:10483000FFF78EFF012384F8463084F83E3084F879
:104840003F3084F8403084F8413084F8423084F8B6
:10485000433084F8443084F8453084F83D300020FB
:1048600010BD80F83C30FDF7BDF8DBE70120704754
:1048700040B310B5044690F83D30F3B1022384F8FC
:104880003D30214651F8040BFFF762FF012384F805
:10489000463084F83E3084F83F3084F8403084F865
:1048A000413084F8423084F8433084F8443084F84E
:1048B000453084F83D30002010BD80F83C30FFF7D3
:1048C00085FEDBE70120704730B4036A23F0100354
:1048D0000362036A4468826922F4E6420D6842EA90
:1048E000052223F020038D6843EA0513114DA842E9
:1048F00003D005F58065A84206D123F08003CD687A
:1049000043EA051323F040030A4DA84203D005F5FE
:104910008065A84207D124F440644D6944EA8504C7
:104920008D6944EA8504446082614A688263036257
:1049300030BC70470000014038B590F83C30012B86
:1049400066D004460D46012380F83C300C2A5AD824
:10495000DFE802F0075959591B595959305959592B
:1049600044000068FFF72AFD2268936943F00803BA
:1049700093612268936923F0040393612268936929
:1049800029690B43936100203EE00068FFF79CFF1C
:104990002268936943F4006393612268936923F466
:1049A0008063936122689369296943EA01239361D3
:1049B000002029E00068FFF735FD2268D36943F045
:1049C0000803D3612268D36923F00403D36122680A
:1049D000D36929690B43D361002015E00068FFF714
:1049E00059FD2268D36943F40063D3612268D36917
:1049F00023F48063D3612268D369296943EA0123E0
:104A0000D361002000E00120002384F83C3038BD51
:104A10000220FCE710B4846824F47F4C42EA0322AD
:104A20000A4342EA0C0282605DF8044B704790F83A
:104A30003C30012B78D010B50446012380F83C307F
:104A4000022380F83D300268936823F47F4323F00B
:104A5000770393600B68602B4CD029D8402B54D03F
:104A60000CD9502B22D1CA6849680068FFF73AFD7B
:104A700050212068FFF75DFD002005E0202B0DD0C0
:104A800009D9302B0AD00120012384F83D300023BE
:104A900084F83C3010BD0BB1102B05D119462068AD
:104AA000FFF747FD0020EFE70120EDE70120EBE7EE
:104AB000B3F5805F34D0B3F5005F0CD1CB684A68A2
:104AC00089680068FFF7A6FF2268936843F4804373
:104AD00093600020D8E7702B24D1CB684A6889689E
:104AE0000068FFF797FF2268936843F077039360AD
:104AF0000020C9E7CA6849680068FFF706FD602121
:104B00002068FFF716FD0020BEE7CA684968006804
:104B1000FFF7E8FC40212068FFF70BFD0020B3E71A
:104B20000020B1E70120AFE70220704701F01F012C
:104B3000012303FA01FC036A23EA0C030362036AFC
:104B400002FA01F10B4303627047000010B50446FE
:104B50000846002942D194F83E30DBB2013B18BF31
:104B60000123002B6ED1002851D1022384F83E305E
:104B7000012201462068FFF7D9FF2368334A934298
:104B800003D002F58062934203D15A6C42F4004292
:104B90005A6423682D4A934249D0B3F1804F46D0DE
:104BA000A2F57C42934242D002F5806293423ED00D
:104BB00002F5806293423AD002F57842934236D0B1
:104BC00002F57052934232D0A2F5943293422ED025
:104BD0001A6842F001021A60002032E0042908D06D
:104BE00008290DD094F84130DBB2013B18BF0123F6
:104BF000B7E794F83F30DBB2013B18BF0123B0E7C1
:104C000094F84030DBB2013B18BF0123A9E7042828
:104C100005D0082807D0022384F84130A8E70223F2
:104C200084F83F30A4E7022384F84030A0E79A6874
:104C300002F00702062A07D01A6842F001021A6041
:104C4000002010BD0120FCE70020FAE70000014031
:104C500090F83C30012B3DD010B4012380F83C305B
:104C6000022380F83D3003685A689C6822F0700C7B
:104C70000A6842EA0C025A600368174A93421AD043
:104C8000B3F1804F17D0A2F57C42934213D002F5C6
:104C9000806293420FD002F5806293420BD002F5FE
:104CA0007842934207D002F57052934203D0A2F5A6
:104CB0009432934204D124F080044A6814439C60E7
:104CC000012380F83D30002380F83C3018465DF821
:104CD000044B7047022070470000014090F83C30C0
:104CE000012B22D0012380F83C30CB6823F44073A1
:104CF0008A68134323F480634A68134323F40063F0
:104D00000A68134323F480530A69134323F40053BE
:104D10004A69134323F48043CA6913430268536406
:104D2000002380F83C3018467047022070477047D7
:104D30007047026802F10C0353E8003F23F49073BC
:104D40000C3242E800310029F3D1026802F1140369
:104D500053E8003F23F00103143242E800310029F8
:104D6000F3D1036B012B05D0202380F83E300023C4
:104D700003637047026802F10C0353E8003F23F01D
:104D800010030C3242E800310029F3D1ECE790F82F
:104D90003D30DBB2212B01D0022070478368B3F590
:104DA000805F17D0036A5A1C02621A7803685A603F
:104DB000C38C9BB2013B9BB2C3844BB90268D368DE
:104DC00023F08003D3600268D36843F04003D360CC
:104DD000002070470369002BE4D1036A1B88026836
:104DE000C3F308035360036A02330362E0E7000081
:104DF00038B504460268136923F44053C1680B4375
:104E0000136183680269134342691343C2691A43F9
:104E10000168CB6823F4164323F00C031343CB60E3
:104E20000268536923F4407381690B43536103683B
:104E3000314A934206D002F58062934202D0FFF7D6
:104E400065F801E0FFF772F8E369B3F5004F29D088
:104E50000021031849411B1841F10001C90041EA32
:104E60005371DB00181863684FEA83024FEA9373AB
:104E700041F10001FBF792FD204DA5FB00325109E5
:104E8000642303FB11031B013233A5FB03235B09DE
:104E900003F0F00202EB011203F00F032168134448
:104EA0008B6038BD0023021843EB0301121841F157
:104EB0000001C90041EA5271D200101841F100010D
:104EC000626892185B41FBF769FD0C4DA5FB00324F
:104ED0005109642303FB1103DB003233A5FB0323D9
:104EE0005B095A0002F4F87202EB011203F00703A7
:104EF000216813448B60D4E7001001401F85EB51FB
:104F000058B310B5044690F83D300BB3242384F811
:104F10003D302268D36823F40053D3602046FFF766
:104F200067FF2268136923F4904313612268536971
:104F300023F02A0353612268D36843F40053D360FB
:104F400000202064202384F83D3084F83E3010BDDA
:104F500080F83C30FCF7C4FED8E70120704770476A
:104F600008B50168CA6822F04002CA60202280F8B1
:104F70003D20FFF7F4FF002008BD7047704708B5DB
:104F8000806B0023C385C384FFF7F8FF08BD70471B
:104F900090F83E30DBB2222B67D18368B3F5805F97
:104FA0004DD0826AB3F5805F04D0002B54D10369E1
:104FB000002B51D103685B681370836A01338362ED
:104FC000C38D9BB2013B9BB2C385002B4FD100B573
:104FD00083B00268D36823F02003D3600268D368EB
:104FE00023F48073D3600268536923F00103536193
:104FF000202380F83E30036B012B33D10023036361
:10500000026802F10C0353E8003F23F010030C3256
:1050100042E800310029F3D103681A6812F0100F3A
:1050200006D0002201921A6801925B680193019BED
:10503000818DFFF7ACFF002003B05DF804FB02692F
:10504000002AAED1826A03685B68C3F30803138049
:10505000836A02338362B3E703685B6803F07F030C
:105060001370AAE7FFF789FFE5E7022070470020E9
:105070007047000030B583B0044602681368D068FA
:10508000516913F00F0505D113F0200F02D010F075
:10509000200F19D12DB111F0010119D110F4907F19
:1050A00016D1216B01297DD013F0800F03D010F0B1
:1050B000800F40F0158113F0400F03D010F0400F27
:1050C00040F0128103B030BD2046FFF761FFF9E7E1
:1050D00013F0010F06D010F4807F03D0226C42F051
:1050E0000102226413F0040F04D019B1226C42F0C3
:1050F0000202226413F0020F04D019B1226C42F0B4
:105100000402226413F0080F07D010F0200F00D122
:1051100019B1226C42F008022264226C002AD1D01C
:1051200013F0200F02D010F0200F29D123685B6903
:1051300003F04003226C12F0080F00D163B3204645
:10514000FFF7F7FD23685B6913F0400F20D022685A
:1051500002F1140353E8003F23F04003143242E805
:1051600000310029F3D1A36B73B1614A1A65A06BBA
:10517000FDF710FC0028A5D0A06B036D9847A1E7B0
:105180002046FFF705FFD1E72046FFF7F7FE99E736
:105190002046FFF7F3FE95E72046FFF7EFFE0023DA
:1051A00023648FE713F0100F3FF47EAF10F0100F61
:1051B0003FF47AAF0023019313680193536801937E
:1051C000019B536913F0400F50D0A26B13685B68CA
:1051D0009BB2002B3FF476AFA18D99427FF672AF60
:1051E000E385D369B3F5807F37D0226802F10C03E1
:1051F00053E8003F23F480730C3242E80031002969
:10520000F3D1226802F1140353E8003F23F00103B5
:10521000143242E800310029F3D1226802F114036C
:1052200053E8003F23F04003143242E800310029E4
:10523000F3D1202384F83E3000232363226802F157
:105240000C0353E8003F23F010030C3242E8003116
:105250000029F3D1A06BFDF753FBA18DE38D9BB229
:10526000C91A89B22046FFF792FE2BE7A18DE38D84
:105270009BB2C91A89B2E38D9BB2002B3FF422AFD7
:1052800000293FF41FAF226802F10C0353E8003FEE
:1052900023F490730C3242E800300028F3D12268E6
:1052A00002F1140353E8003F23F00103143242E8F3
:1052B00000300028F3D1202384F83E3000232363FC
:1052C000226802F10C0353E8003F23F010030C3274
:1052D00042E800300028F3D12046FFF758FEF1E6FF
:1052E0002046FFF754FDEDE62046FFF739FEE9E6DC
:1052F0007F4F0008F0B58FB04A4FC0203870A8210A
:1053000079700123BB700A22FA70474EFF22327077
:105310007270B2700024F470444D28706970AB70E4
:10532000EB702146204604F067F83A787B781B043E
:1053300043EA0263BA7843EA0223F9780B431A027C
:1053400002F47F0242EA0162190A01F47F410A4332
:1053500042EA136336490B60327873781B0443EAE0
:105360000263B27843EA0223F07803431A0202F49C
:105370007F0242EA0062180A00F47F40024342EAD8
:1053800013632C4A136028786B781B0443EA00638C
:10539000A87843EA0023ED782B43180200F47F003D
:1053A00040EA05601D0A05F47F45284340EA136082
:1053B000214B1860214D2248029022480190009410
:1053C000284606F08FF8284606F01EF995F82D308D
:1053D00013F0040F21D0284606F01CF9174C1A4987
:1053E000204606F097F900230C930D9301210CA899
:1053F00000F0C9FB154B1860154E3460706005ACA9
:10540000144D0FCD0FC495E8070084E8070031461E
:1054100005A800F014FB0FB0F0BD084806F018F91D
:10542000DCE700BF841500208815002080150020CF
:10543000C8150020D4150020C415002090150020A8
:1054400055930008A1580008415900088C15002008
:10545000CC15002034D401082DE9F0473248FDF77F
:105460003BFE00285CD1304B998FD3F8408029B99E
:105470004FF0000A2C4B1B6B00213AE04FF4C17235
:1054800006F0E2FA82460028F4D0274B1F6B8146D3
:10549000002421E0D9F80400C4F5BE62043208EB10
:1054A00004013044FBF7FCFBFF68D7F80880A5F245
:1054B000F452361B06F2F4560024A51840F2F453B9
:1054C0009D42E7D8D9F8040008EB04013044FBF70B
:1054D000E7FBD9F800902C46B9F1000FCAD0B9F813
:1054E0000A200026E9E71A6842F000421A60DB68E9
:1054F00001310D4A926B8A42F5D80B4B00229A6318
:105500001B6803F58052526912F0800F05D003F535
:10551000805380225A6100229A605046BDE8F0878D
:105520004FF0000AF9E700BF7846002038B505467D
:105530004FF0FF310E4B186800F049FB0028F7D1FF
:1055400004E00C480BF0E2FA002CF1D009480BF013
:10555000D6FA2846FFF780FF04460028F1D02B69D1
:10556000294698470028ECD0204606F005FAE8E7DF
:10557000C446002070C500202DE9F84F8B462B4B08
:10558000DE6AD6F808A000242746BBF1000F32D00F
:105590003368002B35DBBBF80A90002504EB0908C3
:1055A00040F2F453984519D9DBF80410C4F5BE62F3
:1055B000043229440AEB0400FBF772FBF6683368F7
:1055C000002B21DBD6F808A0A8F2F4592D1B05F218
:1055D000F4553F1B07F2F4570024DFE7DBF8041013
:1055E0004A4629440AEB0400FBF75AFB4F44DBF818
:1055F00000B04446C9E739460C48FDF7D7FC002007
:1056000004E06FF0070001E06FF00700074B1B6834
:1056100003F58052526912F0200F05D003F5805334
:1056200020225A6100225A60BDE8F88F7846002097
:1056300070B58CB0044600230B934248424A026086
:10564000012242604FF4804181604FF40061C160EB
:1056500003828DF8243080218DF82510E1218DF80A
:1056600026108DF827308DF828308DF8293009A9BB
:1056700041618261C3614FF400030362FDF738FEAC
:1056800028B994F82D3043F0040384F82D302D4EC2
:1056900004232E4A2E493046FDF70AFC04232D4AE6
:1056A0002D493046FDF744FC062384F82C307369FD
:1056B0001A7884F826205A7884F827209A7884F873
:1056C0002820DA7884F829201A7984F82A205B794E
:1056D00084F82B3040F2DC53A38494F82D3043F04F
:1056E0000A0384F82D30002307930893012107A8AB
:1056F00000F049FA194B1860EC46194D0FCDACE893
:105700000F0095E807008CE807002146684600F086
:1057100096F9144B1C603046FDF716FF0BAA1D21AD
:105720003046FDF76FFD0B9A42F00B020B921D21E4
:105730003046FDF7A3FD0BAA1D213046FDF762FDA3
:105740000CB070BD7846002000800240A82E0020DA
:1057500058160020D8160020D8150020C446002076
:1057600050D40108C0460020F0B58DB00023079347
:10577000089309930A930B930268404B9A4201D015
:105780000DB0F0BD00240194A3F590431A6B42F0D4
:1057900000721A631A6B02F000720192019A02946D
:1057A0001A6B42F080621A631A6B02F080620292F6
:1057B000029A03941A6B42F000621A631A6B02F0A9
:1057C00000620392039A04941A6B42F004021A6373
:1057D0001A6B02F004020492049A05941A6B42F0C8
:1057E00001021A631A6B02F001020592059A0694EF
:1057F0001A6B42F002021A631B6B03F0020306935A
:10580000069B322307930227089703260A960B2547
:105810000B9507A91A48FDF773FF8623079308978E
:1058200009940A960B9507A91648FDF769FF4FF4EE
:1058300060530793089709940A960B9507A9124895
:10584000FDF75EFF224605213D20FCF743FF3D208A
:10585000FCF778FF0D4D22464FF480512846FEF7A5
:1058600041F83720FCF70EFB01224FF48051284607
:10587000FEF738F83720FCF705FB81E7008002408F
:1058800000080240000002400004024000100240F4
:1058900008B5024B186800F0C9F908BDC4460020DD
:1058A00010B5044670B1732384F82E30742384F845
:1058B0002F30084B6361084BA3612046FFF7B8FE09
:1058C000002010BD054B4FF40C720549054810F03F
:1058D000C5FDE8E7A59C0008795500083CD50108FE
:1058E0008CD501089CD5010808B5FCF7C5FA08BDA0
:1058F00010B582B004460023019306E012F0040FB5
:1059000000D0B3B1C82000F0CFF801AA01210A48A5
:10591000FDF778FC019B03F004030193206890F8E5
:105920002D2012F0040FE9D1002BE7D005F0B0FED6
:10593000E8E705F0D1FEE5E7784600207047000073
:1059400030B583B0044600230193009390F82D30C6
:1059500013F0040F51D02B4B5B68002B35D04FF464
:10596000805200212748FDF789FCFCF785FA019059
:105970006A4601212348FDF745FCFCF77DFA019BAF
:10598000C31AB3F57A7F20D8009B13F0200FEFD015
:105990006A4610211B48FDF735FC009B13F0040FED
:1059A0000AD0184A4FF40061D16013F0020F07D0FB
:1059B000144B00229A6013E0124A0021D160F4E7F0
:1059C000104B4FF480429A600AE00E48C268C2F35E
:1059D000CF028368C3F34F031A430021FDF74EFC47
:1059E000084D00212846FDF7F3FD2846FDF7ACFDE4
:1059F0002046FFF7A3FF03B030BD0248FDF7C6FD08
:105A0000F6E700BF78460020842801D003307047B5
:105A100000207047EFF30580003818BF0120704761
:105A200008B501F077FC002008BD08B5FFF7F2FFCC
:105A300010B101F0BFFC08BD01F0B6FCFBE72DE999
:105A4000F04387B004460F464569BDB18669AEB1E3
:105A5000D0F80480D0F80090B0F90800FFF7D4FF28
:105A60000296019500903B4622694946404601F066
:105A7000DFFB0590059807B0BDE8F08365682668F0
:105A8000D4F81080B4F90800FFF7BEFF05AB01930E
:105A900000903B461FFA88F23146284601F005FC8B
:105AA0000128E7D00020E6E708B500B9012001F0A1
:105AB000E3FD002008BD08B5416819B1012000F0E0
:105AC000FEFE08BD012000F0EFFEFAE730B583B01E
:105AD0000023019310B30C460546FFF79BFFA0B1CE
:105AE00001AA0021284601F03BF9012818D1019BA9
:105AF000C3B14FF0E0234FF08052C3F8042DBFF341
:105B00004F8FBFF36F8F002006E02146284601F03B
